{
  "contractName": "DEX",
  "abi": [
    {
      "anonymous": false,
      "inputs": [
        {
          "indexed": true,
          "internalType": "address",
          "name": "previousOwner",
          "type": "address"
        },
        {
          "indexed": true,
          "internalType": "address",
          "name": "newOwner",
          "type": "address"
        }
      ],
      "name": "OwnershipTransferred",
      "type": "event"
    },
    {
      "inputs": [
        {
          "internalType": "bytes32",
          "name": "symbol",
          "type": "bytes32"
        },
        {
          "internalType": "address",
          "name": "tokenAddress",
          "type": "address"
        }
      ],
      "name": "addToken",
      "outputs": [],
      "stateMutability": "nonpayable",
      "type": "function"
    },
    {
      "inputs": [
        {
          "internalType": "address",
          "name": "",
          "type": "address"
        },
        {
          "internalType": "bytes32",
          "name": "",
          "type": "bytes32"
        }
      ],
      "name": "balances",
      "outputs": [
        {
          "internalType": "uint256",
          "name": "",
          "type": "uint256"
        }
      ],
      "stateMutability": "view",
      "type": "function",
      "constant": true
    },
    {
      "inputs": [
        {
          "internalType": "uint256",
          "name": "amount",
          "type": "uint256"
        },
        {
          "internalType": "bytes32",
          "name": "symbol",
          "type": "bytes32"
        }
      ],
      "name": "deposit",
      "outputs": [],
      "stateMutability": "nonpayable",
      "type": "function"
    },
    {
      "inputs": [],
      "name": "depositEth",
      "outputs": [],
      "stateMutability": "payable",
      "type": "function",
      "payable": true
    },
    {
      "inputs": [],
      "name": "nextOrderId",
      "outputs": [
        {
          "internalType": "uint256",
          "name": "",
          "type": "uint256"
        }
      ],
      "stateMutability": "view",
      "type": "function",
      "constant": true
    },
    {
      "inputs": [
        {
          "internalType": "bytes32",
          "name": "",
          "type": "bytes32"
        },
        {
          "internalType": "enum DEX.TypeOfOrder",
          "name": "",
          "type": "uint8"
        },
        {
          "internalType": "uint256",
          "name": "",
          "type": "uint256"
        }
      ],
      "name": "orderBook",
      "outputs": [
        {
          "internalType": "uint256",
          "name": "id",
          "type": "uint256"
        },
        {
          "internalType": "address",
          "name": "trader",
          "type": "address"
        },
        {
          "internalType": "enum DEX.TypeOfOrder",
          "name": "typeOfOrder",
          "type": "uint8"
        },
        {
          "internalType": "bytes32",
          "name": "symbol",
          "type": "bytes32"
        },
        {
          "internalType": "uint256",
          "name": "amount",
          "type": "uint256"
        },
        {
          "internalType": "uint256",
          "name": "price",
          "type": "uint256"
        }
      ],
      "stateMutability": "view",
      "type": "function",
      "constant": true
    },
    {
      "inputs": [],
      "name": "owner",
      "outputs": [
        {
          "internalType": "address",
          "name": "",
          "type": "address"
        }
      ],
      "stateMutability": "view",
      "type": "function",
      "constant": true
    },
    {
      "inputs": [],
      "name": "renounceOwnership",
      "outputs": [],
      "stateMutability": "nonpayable",
      "type": "function"
    },
    {
      "inputs": [
        {
          "internalType": "uint256",
          "name": "",
          "type": "uint256"
        }
      ],
      "name": "tokenList",
      "outputs": [
        {
          "internalType": "bytes32",
          "name": "",
          "type": "bytes32"
        }
      ],
      "stateMutability": "view",
      "type": "function",
      "constant": true
    },
    {
      "inputs": [
        {
          "internalType": "bytes32",
          "name": "",
          "type": "bytes32"
        }
      ],
      "name": "tokenMapping",
      "outputs": [
        {
          "internalType": "bytes32",
          "name": "symbol",
          "type": "bytes32"
        },
        {
          "internalType": "address",
          "name": "tokenAddress",
          "type": "address"
        }
      ],
      "stateMutability": "view",
      "type": "function",
      "constant": true
    },
    {
      "inputs": [
        {
          "internalType": "address",
          "name": "newOwner",
          "type": "address"
        }
      ],
      "name": "transferOwnership",
      "outputs": [],
      "stateMutability": "nonpayable",
      "type": "function"
    },
    {
      "inputs": [
        {
          "internalType": "uint256",
          "name": "amount",
          "type": "uint256"
        },
        {
          "internalType": "bytes32",
          "name": "symbol",
          "type": "bytes32"
        }
      ],
      "name": "withdraw",
      "outputs": [],
      "stateMutability": "nonpayable",
      "type": "function"
    },
    {
      "inputs": [
        {
          "internalType": "uint256",
          "name": "amount",
          "type": "uint256"
        }
      ],
      "name": "withdrawEth",
      "outputs": [],
      "stateMutability": "nonpayable",
      "type": "function"
    },
    {
      "inputs": [
        {
          "internalType": "bytes32",
          "name": "symbol",
          "type": "bytes32"
        },
        {
          "internalType": "enum DEX.TypeOfOrder",
          "name": "typeOfOrder",
          "type": "uint8"
        }
      ],
      "name": "getOrderBook",
      "outputs": [
        {
          "components": [
            {
              "internalType": "uint256",
              "name": "id",
              "type": "uint256"
            },
            {
              "internalType": "address",
              "name": "trader",
              "type": "address"
            },
            {
              "internalType": "enum DEX.TypeOfOrder",
              "name": "typeOfOrder",
              "type": "uint8"
            },
            {
              "internalType": "bytes32",
              "name": "symbol",
              "type": "bytes32"
            },
            {
              "internalType": "uint256",
              "name": "amount",
              "type": "uint256"
            },
            {
              "internalType": "uint256",
              "name": "price",
              "type": "uint256"
            }
          ],
          "internalType": "struct DEX.Order[]",
          "name": "",
          "type": "tuple[]"
        }
      ],
      "stateMutability": "view",
      "type": "function",
      "constant": true
    },
    {
      "inputs": [
        {
          "internalType": "enum DEX.TypeOfOrder",
          "name": "typeOfOrder",
          "type": "uint8"
        },
        {
          "internalType": "bytes32",
          "name": "symbol",
          "type": "bytes32"
        },
        {
          "internalType": "uint256",
          "name": "amount",
          "type": "uint256"
        },
        {
          "internalType": "uint256",
          "name": "price",
          "type": "uint256"
        }
      ],
      "name": "createLimitOrder",
      "outputs": [],
      "stateMutability": "nonpayable",
      "type": "function"
    }
  ],
  "bytecode": "0x608060405260006004553480156200001657600080fd5b50620000376200002b6200003d60201b60201c565b6200004560201b60201c565b62000109565b600033905090565b60008060009054906101000a900473ffffffffffffffffffffffffffffffffffffffff169050816000806101000a81548173ffffffffffffffffffffffffffffffffffffffff021916908373ffffffffffffffffffffffffffffffffffffffff1602179055508173ffffffffffffffffffffffffffffffffffffffff168173ffffffffffffffffffffffffffffffffffffffff167f8be0079c531659141344cd1fd0a4f28419497f9722a3daafe3b4186f6b6457e060405160405180910390a35050565b6128f580620001196000396000f3fe6080604052600436106100e85760003560e01c80638da5cb5b1161008a578063ba58ea6811610059578063ba58ea68146102d9578063c311d04914610316578063c9630cb01461033f578063f2fde38b14610368576100e8565b80638da5cb5b1461021f5780639776aacf1461024a5780639ead722214610273578063a8d2021a146102b0576100e8565b8063667cb4ba116100c6578063667cb4ba1461015f5780636f3b62f91461019d578063715018a6146101c65780638c29bec0146101dd576100e8565b80631f14df69146100ed5780632a58b3301461012a578063439370b114610155575b600080fd5b3480156100f957600080fd5b50610114600480360381019061010f9190611cbf565b610391565b6040516101219190611d18565b60405180910390f35b34801561013657600080fd5b5061013f6103b6565b60405161014c9190611d18565b60405180910390f35b61015d6103bc565b005b34801561016b57600080fd5b5061018660048036038101906101819190611d33565b610489565b604051610194929190611d7e565b60405180910390f35b3480156101a957600080fd5b506101c460048036038101906101bf9190611df8565b6104cd565b005b3480156101d257600080fd5b506101db610f45565b005b3480156101e957600080fd5b5061020460048036038101906101ff9190611e5f565b610fcd565b60405161021696959493929190611f29565b60405180910390f35b34801561022b57600080fd5b50610234611060565b6040516102419190611f8a565b60405180910390f35b34801561025657600080fd5b50610271600480360381019061026c9190611fa5565b611089565b005b34801561027f57600080fd5b5061029a60048036038101906102959190611fe5565b6111c4565b6040516102a79190612012565b60405180910390f35b3480156102bc57600080fd5b506102d760048036038101906102d2919061202d565b6111e8565b005b3480156102e557600080fd5b5061030060048036038101906102fb919061206d565b6114a2565b60405161030d9190612213565b60405180910390f35b34801561032257600080fd5b5061033d60048036038101906103389190611fe5565b611603565b005b34801561034b57600080fd5b506103666004803603810190610361919061202d565b6117f7565b005b34801561037457600080fd5b5061038f600480360381019061038a9190612235565b611a20565b005b6003602052816000526040600020602052806000526040600020600091509150505481565b60045481565b6000341415610400576040517f08c379a00000000000000000000000000000000000000000000000000000000081526004016103f7906122bf565b60405180910390fd5b34600360003373ffffffffffffffffffffffffffffffffffffffff1673ffffffffffffffffffffffffffffffffffffffff16815260200190815260200160002060007f455448000000000000000000000000000000000000000000000000000000000081526020019081526020016000206000828254610480919061230e565b92505081905550565b60016020528060005260406000206000915090508060000154908060010160009054906101000a900473ffffffffffffffffffffffffffffffffffffffff16905082565b600060018111156104e1576104e0611eb2565b5b8460018111156104f4576104f3611eb2565b5b14156105c45761050d8183611b1890919063ffffffff16565b600360003373ffffffffffffffffffffffffffffffffffffffff1673ffffffffffffffffffffffffffffffffffffffff16815260200190815260200160002060007f455448000000000000000000000000000000000000000000000000000000000081526020019081526020016000205410156105bf576040517f08c379a00000000000000000000000000000000000000000000000000000000081526004016105b6906123d6565b60405180910390fd5b610685565b6001808111156105d7576105d6611eb2565b5b8460018111156105ea576105e9611eb2565b5b14156106845781600360003373ffffffffffffffffffffffffffffffffffffffff1673ffffffffffffffffffffffffffffffffffffffff1681526020019081526020016000206000858152602001908152602001600020541015610683576040517f08c379a000000000000000000000000000000000000000000000000000000000815260040161067a90612468565b60405180910390fd5b5b5b60006005600085815260200190815260200160002060008660018111156106af576106ae611eb2565b5b60018111156106c1576106c0611eb2565b5b81526020019081526020016000209050806040518060c0016040528060045481526020013373ffffffffffffffffffffffffffffffffffffffff16815260200187600181111561071457610713611eb2565b5b81526020018681526020018581526020018481525090806001815401808255809150506001900390600052602060002090600502016000909190919091506000820151816000015560208201518160010160006101000a81548173ffffffffffffffffffffffffffffffffffffffff021916908373ffffffffffffffffffffffffffffffffffffffff16021790555060408201518160010160146101000a81548160ff021916908360018111156107ce576107cd611eb2565b5b0217905550606082015181600201556080820151816003015560a082015181600401555050600080828054905011610807576000610819565b600182805490506108189190612488565b5b90506000600181111561082f5761082e611eb2565b5b86600181111561084257610841611eb2565b5b1415610ba2575b6000811115610b9d57818181548110610865576108646124bc565b5b906000526020600020906005020160040154826001836108859190612488565b81548110610896576108956124bc565b5b90600052602060002090600502016004015411156108b357610b9d565b6000826001836108c39190612488565b815481106108d4576108d36124bc565b5b90600052602060002090600502016040518060c0016040529081600082015481526020016001820160009054906101000a900473ffffffffffffffffffffffffffffffffffffffff1673ffffffffffffffffffffffffffffffffffffffff1673ffffffffffffffffffffffffffffffffffffffff1681526020016001820160149054906101000a900460ff16600181111561097257610971611eb2565b5b600181111561098457610983611eb2565b5b8152602001600282015481526020016003820154815260200160048201548152505090508282815481106109bb576109ba6124bc565b5b9060005260206000209060050201836001846109d79190612488565b815481106109e8576109e76124bc565b5b9060005260206000209060050201600082015481600001556001820160009054906101000a900473ffffffffffffffffffffffffffffffffffffffff168160010160006101000a81548173ffffffffffffffffffffffffffffffffffffffff021916908373ffffffffffffffffffffffffffffffffffffffff1602179055506001820160149054906101000a900460ff168160010160146101000a81548160ff02191690836001811115610a9f57610a9e611eb2565b5b021790555060028201548160020155600382015481600301556004820154816004015590505080838381548110610ad957610ad86124bc565b5b90600052602060002090600502016000820151816000015560208201518160010160006101000a81548173ffffffffffffffffffffffffffffffffffffffff021916908373ffffffffffffffffffffffffffffffffffffffff16021790555060408201518160010160146101000a81548160ff02191690836001811115610b6357610b62611eb2565b5b0217905550606082015181600201556080820151816003015560a082015181600401559050508180610b94906124eb565b92505050610849565b610f25565b600180811115610bb557610bb4611eb2565b5b866001811115610bc857610bc7611eb2565b5b1415610f24575b6000811115610f2357818181548110610beb57610bea6124bc565b5b90600052602060002090600502016004015482600183610c0b9190612488565b81548110610c1c57610c1b6124bc565b5b9060005260206000209060050201600401541015610c3957610f23565b600082600183610c499190612488565b81548110610c5a57610c596124bc565b5b90600052602060002090600502016040518060c0016040529081600082015481526020016001820160009054906101000a900473ffffffffffffffffffffffffffffffffffffffff1673ffffffffffffffffffffffffffffffffffffffff1673ffffffffffffffffffffffffffffffffffffffff1681526020016001820160149054906101000a900460ff166001811115610cf857610cf7611eb2565b5b6001811115610d0a57610d09611eb2565b5b815260200160028201548152602001600382015481526020016004820154815250509050828281548110610d4157610d406124bc565b5b906000526020600020906005020183600184610d5d9190612488565b81548110610d6e57610d6d6124bc565b5b9060005260206000209060050201600082015481600001556001820160009054906101000a900473ffffffffffffffffffffffffffffffffffffffff168160010160006101000a81548173ffffffffffffffffffffffffffffffffffffffff021916908373ffffffffffffffffffffffffffffffffffffffff1602179055506001820160149054906101000a900460ff168160010160146101000a81548160ff02191690836001811115610e2557610e24611eb2565b5b021790555060028201548160020155600382015481600301556004820154816004015590505080838381548110610e5f57610e5e6124bc565b5b90600052602060002090600502016000820151816000015560208201518160010160006101000a81548173ffffffffffffffffffffffffffffffffffffffff021916908373ffffffffffffffffffffffffffffffffffffffff16021790555060408201518160010160146101000a81548160ff02191690836001811115610ee957610ee8611eb2565b5b0217905550606082015181600201556080820151816003015560a082015181600401559050508180610f1a906124eb565b92505050610bcf565b5b5b60046000815480929190610f3890612515565b9190505550505050505050565b610f4d611b2e565b73ffffffffffffffffffffffffffffffffffffffff16610f6b611060565b73ffffffffffffffffffffffffffffffffffffffff1614610fc1576040517f08c379a0000000000000000000000000000000000000000000000000000000008152600401610fb8906125aa565b60405180910390fd5b610fcb6000611b36565b565b60056020528260005260406000206020528160005260406000208181548110610ff557600080fd5b906000526020600020906005020160009250925050508060000154908060010160009054906101000a900473ffffffffffffffffffffffffffffffffffffffff16908060010160149054906101000a900460ff16908060020154908060030154908060040154905086565b60008060009054906101000a900473ffffffffffffffffffffffffffffffffffffffff16905090565b611091611b2e565b73ffffffffffffffffffffffffffffffffffffffff166110af611060565b73ffffffffffffffffffffffffffffffffffffffff1614611105576040517f08c379a00000000000000000000000000000000000000000000000000000000081526004016110fc906125aa565b60405180910390fd5b60405180604001604052808381526020018273ffffffffffffffffffffffffffffffffffffffff16815250600160008481526020019081526020016000206000820151816000015560208201518160010160006101000a81548173ffffffffffffffffffffffffffffffffffffffff021916908373ffffffffffffffffffffffffffffffffffffffff16021790555090505060028290806001815401808255809150506001900390600052602060002001600090919091909150555050565b600281815481106111d457600080fd5b906000526020600020016000915090505481565b80600073ffffffffffffffffffffffffffffffffffffffff166001600083815260200190815260200160002060010160009054906101000a900473ffffffffffffffffffffffffffffffffffffffff1673ffffffffffffffffffffffffffffffffffffffff16141561128f576040517f08c379a000000000000000000000000000000000000000000000000000000000815260040161128690612616565b60405180910390fd5b82600360003373ffffffffffffffffffffffffffffffffffffffff1673ffffffffffffffffffffffffffffffffffffffff1681526020019081526020016000206000848152602001908152602001600020541015611322576040517f08c379a000000000000000000000000000000000000000000000000000000000815260040161131990612682565b60405180910390fd5b61138583600360003373ffffffffffffffffffffffffffffffffffffffff1673ffffffffffffffffffffffffffffffffffffffff168152602001908152602001600020600085815260200190815260200160002054611bfa90919063ffffffff16565b600360003373ffffffffffffffffffffffffffffffffffffffff1673ffffffffffffffffffffffffffffffffffffffff1681526020019081526020016000206000848152602001908152602001600020819055506001600083815260200190815260200160002060010160009054906101000a900473ffffffffffffffffffffffffffffffffffffffff1673ffffffffffffffffffffffffffffffffffffffff1663a9059cbb33856040518363ffffffff1660e01b815260040161144a9291906126a2565b602060405180830381600087803b15801561146457600080fd5b505af1158015611478573d6000803e3d6000fd5b505050506040513d601f19601f8201168201806040525081019061149c9190612703565b50505050565b60606005600084815260200190815260200160002060008360018111156114cc576114cb611eb2565b5b60018111156114de576114dd611eb2565b5b8152602001908152602001600020805480602002602001604051908101604052809291908181526020016000905b828210156115f757838290600052602060002090600502016040518060c0016040529081600082015481526020016001820160009054906101000a900473ffffffffffffffffffffffffffffffffffffffff1673ffffffffffffffffffffffffffffffffffffffff1673ffffffffffffffffffffffffffffffffffffffff1681526020016001820160149054906101000a900460ff1660018111156115b4576115b3611eb2565b5b60018111156115c6576115c5611eb2565b5b815260200160028201548152602001600382015481526020016004820154815250508152602001906001019061150c565b50505050905092915050565b80600360003373ffffffffffffffffffffffffffffffffffffffff1673ffffffffffffffffffffffffffffffffffffffff16815260200190815260200160002060007f455448000000000000000000000000000000000000000000000000000000000081526020019081526020016000205410156116b6576040517f08c379a00000000000000000000000000000000000000000000000000000000081526004016116ad9061277c565b60405180910390fd5b3373ffffffffffffffffffffffffffffffffffffffff166108fc829081150290604051600060405180830381858888f193505050501580156116fc573d6000803e3d6000fd5b5061178081600360003373ffffffffffffffffffffffffffffffffffffffff1673ffffffffffffffffffffffffffffffffffffffff16815260200190815260200160002060007f4554480000000000000000000000000000000000000000000000000000000000815260200190815260200160002054611bfa90919063ffffffff16565b600360003373ffffffffffffffffffffffffffffffffffffffff1673ffffffffffffffffffffffffffffffffffffffff16815260200190815260200160002060007f455448000000000000000000000000000000000000000000000000000000000081526020019081526020016000208190555050565b80600073ffffffffffffffffffffffffffffffffffffffff166001600083815260200190815260200160002060010160009054906101000a900473ffffffffffffffffffffffffffffffffffffffff1673ffffffffffffffffffffffffffffffffffffffff16141561189e576040517f08c379a000000000000000000000000000000000000000000000000000000000815260040161189590612616565b60405180910390fd5b6001600083815260200190815260200160002060010160009054906101000a900473ffffffffffffffffffffffffffffffffffffffff1673ffffffffffffffffffffffffffffffffffffffff166323b872dd3330866040518463ffffffff1660e01b81526004016119119392919061279c565b602060405180830381600087803b15801561192b57600080fd5b505af115801561193f573d6000803e3d6000fd5b505050506040513d601f19601f820116820180604052508101906119639190612703565b506119c783600360003373ffffffffffffffffffffffffffffffffffffffff1673ffffffffffffffffffffffffffffffffffffffff168152602001908152602001600020600085815260200190815260200160002054611c1090919063ffffffff16565b600360003373ffffffffffffffffffffffffffffffffffffffff1673ffffffffffffffffffffffffffffffffffffffff168152602001908152602001600020600084815260200190815260200160002081905550505050565b611a28611b2e565b73ffffffffffffffffffffffffffffffffffffffff16611a46611060565b73ffffffffffffffffffffffffffffffffffffffff1614611a9c576040517f08c379a0000000000000000000000000000000000000000000000000000000008152600401611a93906125aa565b60405180910390fd5b600073ffffffffffffffffffffffffffffffffffffffff168173ffffffffffffffffffffffffffffffffffffffff161415611b0c576040517f08c379a0000000000000000000000000000000000000000000000000000000008152600401611b0390612845565b60405180910390fd5b611b1581611b36565b50565b60008183611b269190612865565b905092915050565b600033905090565b60008060009054906101000a900473ffffffffffffffffffffffffffffffffffffffff169050816000806101000a81548173ffffffffffffffffffffffffffffffffffffffff021916908373ffffffffffffffffffffffffffffffffffffffff1602179055508173ffffffffffffffffffffffffffffffffffffffff168173ffffffffffffffffffffffffffffffffffffffff167f8be0079c531659141344cd1fd0a4f28419497f9722a3daafe3b4186f6b6457e060405160405180910390a35050565b60008183611c089190612488565b905092915050565b60008183611c1e919061230e565b905092915050565b600080fd5b600073ffffffffffffffffffffffffffffffffffffffff82169050919050565b6000611c5682611c2b565b9050919050565b611c6681611c4b565b8114611c7157600080fd5b50565b600081359050611c8381611c5d565b92915050565b6000819050919050565b611c9c81611c89565b8114611ca757600080fd5b50565b600081359050611cb981611c93565b92915050565b60008060408385031215611cd657611cd5611c26565b5b6000611ce485828601611c74565b9250506020611cf585828601611caa565b9150509250929050565b6000819050919050565b611d1281611cff565b82525050565b6000602082019050611d2d6000830184611d09565b92915050565b600060208284031215611d4957611d48611c26565b5b6000611d5784828501611caa565b91505092915050565b611d6981611c89565b82525050565b611d7881611c4b565b82525050565b6000604082019050611d936000830185611d60565b611da06020830184611d6f565b9392505050565b60028110611db457600080fd5b50565b600081359050611dc681611da7565b92915050565b611dd581611cff565b8114611de057600080fd5b50565b600081359050611df281611dcc565b92915050565b60008060008060808587031215611e1257611e11611c26565b5b6000611e2087828801611db7565b9450506020611e3187828801611caa565b9350506040611e4287828801611de3565b9250506060611e5387828801611de3565b91505092959194509250565b600080600060608486031215611e7857611e77611c26565b5b6000611e8686828701611caa565b9350506020611e9786828701611db7565b9250506040611ea886828701611de3565b9150509250925092565b7f4e487b7100000000000000000000000000000000000000000000000000000000600052602160045260246000fd5b60028110611ef257611ef1611eb2565b5b50565b6000819050611f0382611ee1565b919050565b6000611f1382611ef5565b9050919050565b611f2381611f08565b82525050565b600060c082019050611f3e6000830189611d09565b611f4b6020830188611d6f565b611f586040830187611f1a565b611f656060830186611d60565b611f726080830185611d09565b611f7f60a0830184611d09565b979650505050505050565b6000602082019050611f9f6000830184611d6f565b92915050565b60008060408385031215611fbc57611fbb611c26565b5b6000611fca85828601611caa565b9250506020611fdb85828601611c74565b9150509250929050565b600060208284031215611ffb57611ffa611c26565b5b600061200984828501611de3565b91505092915050565b60006020820190506120276000830184611d60565b92915050565b6000806040838503121561204457612043611c26565b5b600061205285828601611de3565b925050602061206385828601611caa565b9150509250929050565b6000806040838503121561208457612083611c26565b5b600061209285828601611caa565b92505060206120a385828601611db7565b9150509250929050565b600081519050919050565b600082825260208201905092915050565b6000819050602082019050919050565b6120e281611cff565b82525050565b6120f181611c4b565b82525050565b61210081611f08565b82525050565b61210f81611c89565b82525050565b60c08201600082015161212b60008501826120d9565b50602082015161213e60208501826120e8565b50604082015161215160408501826120f7565b5060608201516121646060850182612106565b50608082015161217760808501826120d9565b5060a082015161218a60a08501826120d9565b50505050565b600061219c8383612115565b60c08301905092915050565b6000602082019050919050565b60006121c0826120ad565b6121ca81856120b8565b93506121d5836120c9565b8060005b838110156122065781516121ed8882612190565b97506121f8836121a8565b9250506001810190506121d9565b5085935050505092915050565b6000602082019050818103600083015261222d81846121b5565b905092915050565b60006020828403121561224b5761224a611c26565b5b600061225984828501611c74565b91505092915050565b600082825260208201905092915050565b7f63616e6e6f74206465706f736974206e6f7468696e6700000000000000000000600082015250565b60006122a9601683612262565b91506122b482612273565b602082019050919050565b600060208201905081810360008301526122d88161229c565b9050919050565b7f4e487b7100000000000000000000000000000000000000000000000000000000600052601160045260246000fd5b600061231982611cff565b915061232483611cff565b9250827fffffffffffffffffffffffffffffffffffffffffffffffffffffffffffffffff03821115612359576123586122df565b5b828201905092915050565b7f4554482062616c616e6365206d7573742062652067726561746572207468616e60008201527f206f7220657175616c20746f20627579206f726465722076616c756521000000602082015250565b60006123c0603d83612262565b91506123cb82612364565b604082019050919050565b600060208201905081810360008301526123ef816123b3565b9050919050565b7f546f6b656e2062616c616e6365206d757374206265206772656174657220746860008201527f616e206f7220657175616c20746f2073656c6c206f726465722076616c756521602082015250565b6000612452604083612262565b915061245d826123f6565b604082019050919050565b6000602082019050818103600083015261248181612445565b9050919050565b600061249382611cff565b915061249e83611cff565b9250828210156124b1576124b06122df565b5b828203905092915050565b7f4e487b7100000000000000000000000000000000000000000000000000000000600052603260045260246000fd5b60006124f682611cff565b9150600082141561250a576125096122df565b5b600182039050919050565b600061252082611cff565b91507fffffffffffffffffffffffffffffffffffffffffffffffffffffffffffffffff821415612553576125526122df565b5b600182019050919050565b7f4f776e61626c653a2063616c6c6572206973206e6f7420746865206f776e6572600082015250565b6000612594602083612262565b915061259f8261255e565b602082019050919050565b600060208201905081810360008301526125c381612587565b9050919050565b7f546f6b656e20646f65736e277420657869737421000000000000000000000000600082015250565b6000612600601483612262565b915061260b826125ca565b602082019050919050565b6000602082019050818103600083015261262f816125f3565b9050919050565b7f4e6f7420656e6f7567682066756e647320666f72207769746864726177000000600082015250565b600061266c601d83612262565b915061267782612636565b602082019050919050565b6000602082019050818103600083015261269b8161265f565b9050919050565b60006040820190506126b76000830185611d6f565b6126c46020830184611d09565b9392505050565b60008115159050919050565b6126e0816126cb565b81146126eb57600080fd5b50565b6000815190506126fd816126d7565b92915050565b60006020828403121561271957612718611c26565b5b6000612727848285016126ee565b91505092915050565b7f42616c616e6365206e6f742073756666696369656e7400000000000000000000600082015250565b6000612766601683612262565b915061277182612730565b602082019050919050565b6000602082019050818103600083015261279581612759565b9050919050565b60006060820190506127b16000830186611d6f565b6127be6020830185611d6f565b6127cb6040830184611d09565b949350505050565b7f4f776e61626c653a206e6577206f776e657220697320746865207a65726f206160008201527f6464726573730000000000000000000000000000000000000000000000000000602082015250565b600061282f602683612262565b915061283a826127d3565b604082019050919050565b6000602082019050818103600083015261285e81612822565b9050919050565b600061287082611cff565b915061287b83611cff565b9250817fffffffffffffffffffffffffffffffffffffffffffffffffffffffffffffffff04831182151516156128b4576128b36122df565b5b82820290509291505056fea26469706673582212207958e05e469709cb519c9e68209f623ad39e083f5b4457ef533482f73d59865b64736f6c63430008090033",
  "immutableReferences": {},
  "source": "pragma solidity >=0.4.22 <0.9.0;\npragma experimental ABIEncoderV2;\n\nimport \"./Wallet.sol\";\n\ncontract DEX is Wallet {\n\n\t// it's always safer to use SafeMath!!\n\tusing SafeMath for uint256;\n\n\tenum TypeOfOrder {\n\t\tBuy, \n\t\tSell\n\t}\n\n\tstruct Order {\n\t\tuint id;\n\t\taddress trader;\n\t\tTypeOfOrder typeOfOrder;\n\t\tbytes32 symbol;\n\t\tuint amount;\n\t\tuint price;\n\t}\n\n\tuint public nextOrderId = 0;\n\n\tmapping(bytes32 => mapping(TypeOfOrder => Order[])) public orderBook;\n\n\tfunction getOrderBook(bytes32 symbol, TypeOfOrder typeOfOrder) view public returns(Order[] memory) {\n\t\treturn orderBook[symbol][typeOfOrder];\n\t}\n\n\tfunction createLimitOrder(TypeOfOrder typeOfOrder, bytes32 symbol, uint amount, uint price) public{\n\t\tif (typeOfOrder == TypeOfOrder.Buy) {\n\t\t\trequire(balances[msg.sender][\"ETH\"] >= amount.mul(price), \"ETH balance must be greater than or equal to buy order value!\");\n\t\t} else if(typeOfOrder == TypeOfOrder.Sell){\n\t\t\trequire(balances[msg.sender][symbol] >= amount, \"Token balance must be greater than or equal to sell order value!\");\n\t\t}\n\n\t\tOrder[] storage orders = orderBook[symbol][typeOfOrder];\n\t\torders.push(Order(nextOrderId, msg.sender, typeOfOrder, symbol, amount, price));\n\n\t\t//Bubble sort\n\t\tuint i = orders.length > 0 ? orders.length - 1 : 0;\n\n\t\tif (typeOfOrder == TypeOfOrder.Buy) {\n\t\t\twhile(i > 0){\n\t\t\t\tif(orders[i - 1].price > orders[i].price) {\n\t\t\t\t\tbreak;\n\t\t\t\t}\n\t\t\t\tOrder memory orderToMove = orders[i - 1];\n\t\t\t\torders[i - 1] = orders[i];\n\t\t\t\torders[i] = orderToMove;\n\t\t\t\ti--;\n\t\t\t}\n\t\t} else if (typeOfOrder == TypeOfOrder.Sell) {\n\t\t\twhile (i > 0) {\n\t\t\t\tif(orders[i - 1].price < orders[i].price) {\n\t\t\t\t\tbreak;\n\t\t\t\t}\n\t\t\t\tOrder memory orderToMove = orders[i - 1];\n\t\t\t\torders[i - 1] = orders[i];\n\t\t\t\torders[i] = orderToMove;\n\t\t\t\ti--;\n\t\t\t}\n\t\t}\n\n\t\tnextOrderId++;\n\t}\n}",
  "sourcePath": "/Users/romanrakhlin/Dropbox/Mac/Desktop/myDEX/contracts/dex.sol",
  "compiler": {
    "name": "solc",
    "version": "0.8.9+commit.e5eed63a.Emscripten.clang"
  },
  "schemaVersion": "3.4.3",
  "updatedAt": "2022-02-04T17:46:42.157Z",
  "networkType": "ethereum",
  "devdoc": {
    "kind": "dev",
    "methods": {
      "owner()": {
        "details": "Returns the address of the current owner."
      },
      "renounceOwnership()": {
        "details": "Leaves the contract without owner. It will not be possible to call `onlyOwner` functions anymore. Can only be called by the current owner. NOTE: Renouncing ownership will leave the contract without an owner, thereby removing any functionality that is only available to the owner."
      },
      "transferOwnership(address)": {
        "details": "Transfers ownership of the contract to a new account (`newOwner`). Can only be called by the current owner."
      }
    },
    "version": 1
  },
  "userdoc": {
    "kind": "user",
    "methods": {},
    "version": 1
  }
}