{
  "contractName": "Wallet",
  "abi": [
    {
      "anonymous": false,
      "inputs": [
        {
          "indexed": true,
          "internalType": "address",
          "name": "previousOwner",
          "type": "address"
        },
        {
          "indexed": true,
          "internalType": "address",
          "name": "newOwner",
          "type": "address"
        }
      ],
      "name": "OwnershipTransferred",
      "type": "event"
    },
    {
      "inputs": [
        {
          "internalType": "address",
          "name": "",
          "type": "address"
        },
        {
          "internalType": "bytes32",
          "name": "",
          "type": "bytes32"
        }
      ],
      "name": "balances",
      "outputs": [
        {
          "internalType": "uint256",
          "name": "",
          "type": "uint256"
        }
      ],
      "stateMutability": "view",
      "type": "function"
    },
    {
      "inputs": [],
      "name": "owner",
      "outputs": [
        {
          "internalType": "address",
          "name": "",
          "type": "address"
        }
      ],
      "stateMutability": "view",
      "type": "function"
    },
    {
      "inputs": [],
      "name": "renounceOwnership",
      "outputs": [],
      "stateMutability": "nonpayable",
      "type": "function"
    },
    {
      "inputs": [
        {
          "internalType": "uint256",
          "name": "",
          "type": "uint256"
        }
      ],
      "name": "tokenList",
      "outputs": [
        {
          "internalType": "bytes32",
          "name": "",
          "type": "bytes32"
        }
      ],
      "stateMutability": "view",
      "type": "function"
    },
    {
      "inputs": [
        {
          "internalType": "bytes32",
          "name": "",
          "type": "bytes32"
        }
      ],
      "name": "tokenMapping",
      "outputs": [
        {
          "internalType": "bytes32",
          "name": "symbol",
          "type": "bytes32"
        },
        {
          "internalType": "address",
          "name": "tokenAddress",
          "type": "address"
        }
      ],
      "stateMutability": "view",
      "type": "function"
    },
    {
      "inputs": [
        {
          "internalType": "address",
          "name": "newOwner",
          "type": "address"
        }
      ],
      "name": "transferOwnership",
      "outputs": [],
      "stateMutability": "nonpayable",
      "type": "function"
    },
    {
      "inputs": [
        {
          "internalType": "bytes32",
          "name": "symbol",
          "type": "bytes32"
        },
        {
          "internalType": "address",
          "name": "tokenAddress",
          "type": "address"
        }
      ],
      "name": "addToken",
      "outputs": [],
      "stateMutability": "nonpayable",
      "type": "function"
    },
    {
      "inputs": [
        {
          "internalType": "uint256",
          "name": "amount",
          "type": "uint256"
        },
        {
          "internalType": "bytes32",
          "name": "symbol",
          "type": "bytes32"
        }
      ],
      "name": "deposit",
      "outputs": [],
      "stateMutability": "nonpayable",
      "type": "function"
    },
    {
      "inputs": [
        {
          "internalType": "uint256",
          "name": "amount",
          "type": "uint256"
        },
        {
          "internalType": "bytes32",
          "name": "symbol",
          "type": "bytes32"
        }
      ],
      "name": "withdraw",
      "outputs": [],
      "stateMutability": "nonpayable",
      "type": "function"
    },
    {
      "inputs": [],
      "name": "depositEth",
      "outputs": [],
      "stateMutability": "payable",
      "type": "function"
    },
    {
      "inputs": [
        {
          "internalType": "uint256",
          "name": "amount",
          "type": "uint256"
        }
      ],
      "name": "withdrawEth",
      "outputs": [],
      "stateMutability": "nonpayable",
      "type": "function"
    }
  ],
  "bytecode": "0x608060405234801561001057600080fd5b5061002d61002261003260201b60201c565b61003a60201b60201c565b6100fe565b600033905090565b60008060009054906101000a900473ffffffffffffffffffffffffffffffffffffffff169050816000806101000a81548173ffffffffffffffffffffffffffffffffffffffff021916908373ffffffffffffffffffffffffffffffffffffffff1602179055508173ffffffffffffffffffffffffffffffffffffffff168173ffffffffffffffffffffffffffffffffffffffff167f8be0079c531659141344cd1fd0a4f28419497f9722a3daafe3b4186f6b6457e060405160405180910390a35050565b6115af8061010d6000396000f3fe60806040526004361061009c5760003560e01c80639776aacf116100645780639776aacf146101685780639ead722214610191578063a8d2021a146101ce578063c311d049146101f7578063c9630cb014610220578063f2fde38b146102495761009c565b80631f14df69146100a1578063439370b1146100de578063667cb4ba146100e8578063715018a6146101265780638da5cb5b1461013d575b600080fd5b3480156100ad57600080fd5b506100c860048036038101906100c39190610f18565b610272565b6040516100d59190610f71565b60405180910390f35b6100e6610297565b005b3480156100f457600080fd5b5061010f600480360381019061010a9190610f8c565b610364565b60405161011d929190610fd7565b60405180910390f35b34801561013257600080fd5b5061013b6103a8565b005b34801561014957600080fd5b50610152610430565b60405161015f9190611000565b60405180910390f35b34801561017457600080fd5b5061018f600480360381019061018a919061101b565b610459565b005b34801561019d57600080fd5b506101b860048036038101906101b39190611087565b610594565b6040516101c591906110b4565b60405180910390f35b3480156101da57600080fd5b506101f560048036038101906101f091906110cf565b6105b8565b005b34801561020357600080fd5b5061021e60048036038101906102199190611087565b610872565b005b34801561022c57600080fd5b50610247600480360381019061024291906110cf565b610a66565b005b34801561025557600080fd5b50610270600480360381019061026b919061110f565b610c8f565b005b6003602052816000526040600020602052806000526040600020600091509150505481565b60003414156102db576040517f08c379a00000000000000000000000000000000000000000000000000000000081526004016102d290611199565b60405180910390fd5b34600360003373ffffffffffffffffffffffffffffffffffffffff1673ffffffffffffffffffffffffffffffffffffffff16815260200190815260200160002060007f45544800000000000000000000000000000000000000000000000000000000008152602001908152602001600020600082825461035b91906111e8565b92505081905550565b60016020528060005260406000206000915090508060000154908060010160009054906101000a900473ffffffffffffffffffffffffffffffffffffffff16905082565b6103b0610d87565b73ffffffffffffffffffffffffffffffffffffffff166103ce610430565b73ffffffffffffffffffffffffffffffffffffffff1614610424576040517f08c379a000000000000000000000000000000000000000000000000000000000815260040161041b9061128a565b60405180910390fd5b61042e6000610d8f565b565b60008060009054906101000a900473ffffffffffffffffffffffffffffffffffffffff16905090565b610461610d87565b73ffffffffffffffffffffffffffffffffffffffff1661047f610430565b73ffffffffffffffffffffffffffffffffffffffff16146104d5576040517f08c379a00000000000000000000000000000000000000000000000000000000081526004016104cc9061128a565b60405180910390fd5b60405180604001604052808381526020018273ffffffffffffffffffffffffffffffffffffffff16815250600160008481526020019081526020016000206000820151816000015560208201518160010160006101000a81548173ffffffffffffffffffffffffffffffffffffffff021916908373ffffffffffffffffffffffffffffffffffffffff16021790555090505060028290806001815401808255809150506001900390600052602060002001600090919091909150555050565b600281815481106105a457600080fd5b906000526020600020016000915090505481565b80600073ffffffffffffffffffffffffffffffffffffffff166001600083815260200190815260200160002060010160009054906101000a900473ffffffffffffffffffffffffffffffffffffffff1673ffffffffffffffffffffffffffffffffffffffff16141561065f576040517f08c379a0000000000000000000000000000000000000000000000000000000008152600401610656906112f6565b60405180910390fd5b82600360003373ffffffffffffffffffffffffffffffffffffffff1673ffffffffffffffffffffffffffffffffffffffff16815260200190815260200160002060008481526020019081526020016000205410156106f2576040517f08c379a00000000000000000000000000000000000000000000000000000000081526004016106e990611362565b60405180910390fd5b61075583600360003373ffffffffffffffffffffffffffffffffffffffff1673ffffffffffffffffffffffffffffffffffffffff168152602001908152602001600020600085815260200190815260200160002054610e5390919063ffffffff16565b600360003373ffffffffffffffffffffffffffffffffffffffff1673ffffffffffffffffffffffffffffffffffffffff1681526020019081526020016000206000848152602001908152602001600020819055506001600083815260200190815260200160002060010160009054906101000a900473ffffffffffffffffffffffffffffffffffffffff1673ffffffffffffffffffffffffffffffffffffffff1663a9059cbb33856040518363ffffffff1660e01b815260040161081a929190611382565b602060405180830381600087803b15801561083457600080fd5b505af1158015610848573d6000803e3d6000fd5b505050506040513d601f19601f8201168201806040525081019061086c91906113e3565b50505050565b80600360003373ffffffffffffffffffffffffffffffffffffffff1673ffffffffffffffffffffffffffffffffffffffff16815260200190815260200160002060007f45544800000000000000000000000000000000000000000000000000000000008152602001908152602001600020541015610925576040517f08c379a000000000000000000000000000000000000000000000000000000000815260040161091c9061145c565b60405180910390fd5b3373ffffffffffffffffffffffffffffffffffffffff166108fc829081150290604051600060405180830381858888f1935050505015801561096b573d6000803e3d6000fd5b506109ef81600360003373ffffffffffffffffffffffffffffffffffffffff1673ffffffffffffffffffffffffffffffffffffffff16815260200190815260200160002060007f4554480000000000000000000000000000000000000000000000000000000000815260200190815260200160002054610e5390919063ffffffff16565b600360003373ffffffffffffffffffffffffffffffffffffffff1673ffffffffffffffffffffffffffffffffffffffff16815260200190815260200160002060007f455448000000000000000000000000000000000000000000000000000000000081526020019081526020016000208190555050565b80600073ffffffffffffffffffffffffffffffffffffffff166001600083815260200190815260200160002060010160009054906101000a900473ffffffffffffffffffffffffffffffffffffffff1673ffffffffffffffffffffffffffffffffffffffff161415610b0d576040517f08c379a0000000000000000000000000000000000000000000000000000000008152600401610b04906112f6565b60405180910390fd5b6001600083815260200190815260200160002060010160009054906101000a900473ffffffffffffffffffffffffffffffffffffffff1673ffffffffffffffffffffffffffffffffffffffff166323b872dd3330866040518463ffffffff1660e01b8152600401610b809392919061147c565b602060405180830381600087803b158015610b9a57600080fd5b505af1158015610bae573d6000803e3d6000fd5b505050506040513d601f19601f82011682018060405250810190610bd291906113e3565b50610c3683600360003373ffffffffffffffffffffffffffffffffffffffff1673ffffffffffffffffffffffffffffffffffffffff168152602001908152602001600020600085815260200190815260200160002054610e6990919063ffffffff16565b600360003373ffffffffffffffffffffffffffffffffffffffff1673ffffffffffffffffffffffffffffffffffffffff168152602001908152602001600020600084815260200190815260200160002081905550505050565b610c97610d87565b73ffffffffffffffffffffffffffffffffffffffff16610cb5610430565b73ffffffffffffffffffffffffffffffffffffffff1614610d0b576040517f08c379a0000000000000000000000000000000000000000000000000000000008152600401610d029061128a565b60405180910390fd5b600073ffffffffffffffffffffffffffffffffffffffff168173ffffffffffffffffffffffffffffffffffffffff161415610d7b576040517f08c379a0000000000000000000000000000000000000000000000000000000008152600401610d7290611525565b60405180910390fd5b610d8481610d8f565b50565b600033905090565b60008060009054906101000a900473ffffffffffffffffffffffffffffffffffffffff169050816000806101000a81548173ffffffffffffffffffffffffffffffffffffffff021916908373ffffffffffffffffffffffffffffffffffffffff1602179055508173ffffffffffffffffffffffffffffffffffffffff168173ffffffffffffffffffffffffffffffffffffffff167f8be0079c531659141344cd1fd0a4f28419497f9722a3daafe3b4186f6b6457e060405160405180910390a35050565b60008183610e619190611545565b905092915050565b60008183610e7791906111e8565b905092915050565b600080fd5b600073ffffffffffffffffffffffffffffffffffffffff82169050919050565b6000610eaf82610e84565b9050919050565b610ebf81610ea4565b8114610eca57600080fd5b50565b600081359050610edc81610eb6565b92915050565b6000819050919050565b610ef581610ee2565b8114610f0057600080fd5b50565b600081359050610f1281610eec565b92915050565b60008060408385031215610f2f57610f2e610e7f565b5b6000610f3d85828601610ecd565b9250506020610f4e85828601610f03565b9150509250929050565b6000819050919050565b610f6b81610f58565b82525050565b6000602082019050610f866000830184610f62565b92915050565b600060208284031215610fa257610fa1610e7f565b5b6000610fb084828501610f03565b91505092915050565b610fc281610ee2565b82525050565b610fd181610ea4565b82525050565b6000604082019050610fec6000830185610fb9565b610ff96020830184610fc8565b9392505050565b60006020820190506110156000830184610fc8565b92915050565b6000806040838503121561103257611031610e7f565b5b600061104085828601610f03565b925050602061105185828601610ecd565b9150509250929050565b61106481610f58565b811461106f57600080fd5b50565b6000813590506110818161105b565b92915050565b60006020828403121561109d5761109c610e7f565b5b60006110ab84828501611072565b91505092915050565b60006020820190506110c96000830184610fb9565b92915050565b600080604083850312156110e6576110e5610e7f565b5b60006110f485828601611072565b925050602061110585828601610f03565b9150509250929050565b60006020828403121561112557611124610e7f565b5b600061113384828501610ecd565b91505092915050565b600082825260208201905092915050565b7f63616e6e6f74206465706f736974206e6f7468696e6700000000000000000000600082015250565b600061118360168361113c565b915061118e8261114d565b602082019050919050565b600060208201905081810360008301526111b281611176565b9050919050565b7f4e487b7100000000000000000000000000000000000000000000000000000000600052601160045260246000fd5b60006111f382610f58565b91506111fe83610f58565b9250827fffffffffffffffffffffffffffffffffffffffffffffffffffffffffffffffff03821115611233576112326111b9565b5b828201905092915050565b7f4f776e61626c653a2063616c6c6572206973206e6f7420746865206f776e6572600082015250565b600061127460208361113c565b915061127f8261123e565b602082019050919050565b600060208201905081810360008301526112a381611267565b9050919050565b7f546f6b656e20646f65736e277420657869737421000000000000000000000000600082015250565b60006112e060148361113c565b91506112eb826112aa565b602082019050919050565b6000602082019050818103600083015261130f816112d3565b9050919050565b7f4e6f7420656e6f7567682066756e647320666f72207769746864726177000000600082015250565b600061134c601d8361113c565b915061135782611316565b602082019050919050565b6000602082019050818103600083015261137b8161133f565b9050919050565b60006040820190506113976000830185610fc8565b6113a46020830184610f62565b9392505050565b60008115159050919050565b6113c0816113ab565b81146113cb57600080fd5b50565b6000815190506113dd816113b7565b92915050565b6000602082840312156113f9576113f8610e7f565b5b6000611407848285016113ce565b91505092915050565b7f42616c616e6365206e6f742073756666696369656e7400000000000000000000600082015250565b600061144660168361113c565b915061145182611410565b602082019050919050565b6000602082019050818103600083015261147581611439565b9050919050565b60006060820190506114916000830186610fc8565b61149e6020830185610fc8565b6114ab6040830184610f62565b949350505050565b7f4f776e61626c653a206e6577206f776e657220697320746865207a65726f206160008201527f6464726573730000000000000000000000000000000000000000000000000000602082015250565b600061150f60268361113c565b915061151a826114b3565b604082019050919050565b6000602082019050818103600083015261153e81611502565b9050919050565b600061155082610f58565b915061155b83610f58565b92508282101561156e5761156d6111b9565b5b82820390509291505056fea2646970667358221220ae0afd1df0e485f10957f194d3c25827c65e4771b369422a0296d324feb8867064736f6c63430008090033",
  "immutableReferences": {},
  "source": "pragma solidity >=0.4.22 <0.9.0;\n\nimport \"../node_modules/@openzeppelin/contracts/token/ERC20/IERC20.sol\";\nimport \"../node_modules/@openzeppelin/contracts//utils/math/SafeMath.sol\";\nimport \"../node_modules/@openzeppelin/contracts//access/Ownable.sol\";\n\ncontract Wallet is Ownable {\n\n\t// check that the Token struct for that symbol is exists not 0x00000000\n\tmodifier tokenExists(bytes32 symbol) {\n\t\trequire(tokenMapping[symbol].tokenAddress != address(0), \"Token doesn't exist!\");\n\t\t_;\n\t}\n\n\t// it's always safer to use SafeMath!!\n\tusing SafeMath for uint256;\n\n\t// the typical ERC20 tokens has those things\n\tstruct Token {\n\t\tbytes32 symbol;\n\t\taddress tokenAddress;\n\t}\n\n\tmapping(bytes32 => Token) public tokenMapping; // info about the tokens\n\tbytes32[] public tokenList; // all tokens has we have (ever interacted)\n\n\t// each address has specific token (bytes32 is a code of token) => the amount of that token\n\tmapping(address => mapping(bytes32 => uint256)) public balances;\n\n\tfunction addToken(bytes32 symbol, address tokenAddress) onlyOwner external {\n\t\ttokenMapping[symbol] = Token(symbol, tokenAddress);\n\t\ttokenList.push(symbol);\n\t}\n\n\tfunction deposit(uint amount, bytes32 symbol) tokenExists(symbol) external {\n\t\tIERC20(tokenMapping[symbol].tokenAddress).transferFrom(msg.sender, address(this), amount);\n\t\tbalances[msg.sender][symbol] = balances[msg.sender][symbol].add(amount);\n\t}\n\n\tfunction withdraw(uint amount, bytes32 symbol) tokenExists(symbol) external {\n\t\trequire(balances[msg.sender][symbol] >= amount, \"Not enough funds for withdraw\"); //balance more than withdwar\n\n\t\tbalances[msg.sender][symbol] = balances[msg.sender][symbol].sub(amount); // Safe Subtraction\n\t\tIERC20(tokenMapping[symbol].tokenAddress).transfer(msg.sender, amount);\n\t}\n\n\t//deposit ETH\n    function depositEth() public payable {\n        require(msg.value != 0, \"cannot deposit nothing\");\n        //IERC20(tokenMapping[\"ETH\"]).transferFrom(msg.sender,address(this), msg.value);\n        balances[msg.sender][\"ETH\"] += msg.value;\n    }\n\n    //withdraw ETH\n    function withdrawEth(uint amount) external {\n        require(balances[msg.sender][\"ETH\"] >= amount, \"Balance not sufficient\");\n        payable(msg.sender).transfer(amount);\n        //IERC20(tokenMapping[\"ETH\"]).transfer(msg.sender, msg.value);\n        balances[msg.sender][\"ETH\"] = balances[msg.sender][\"ETH\"].sub(amount);\n    }\n}",
  "sourcePath": "/Users/romanrakhlin/Dropbox/Mac/Desktop/myDEX/contracts/Wallet.sol",
  "compiler": {
    "name": "solc",
    "version": "0.8.9+commit.e5eed63a.Emscripten.clang"
  },
  "schemaVersion": "3.4.3",
  "updatedAt": "2022-02-04T17:46:39.780Z",
  "devdoc": {
    "kind": "dev",
    "methods": {
      "owner()": {
        "details": "Returns the address of the current owner."
      },
      "renounceOwnership()": {
        "details": "Leaves the contract without owner. It will not be possible to call `onlyOwner` functions anymore. Can only be called by the current owner. NOTE: Renouncing ownership will leave the contract without an owner, thereby removing any functionality that is only available to the owner."
      },
      "transferOwnership(address)": {
        "details": "Transfers ownership of the contract to a new account (`newOwner`). Can only be called by the current owner."
      }
    },
    "version": 1
  },
  "userdoc": {
    "kind": "user",
    "methods": {},
    "version": 1
  }
}